{
  "_format": "hh-sol-artifact-1",
  "contractName": "LandNFT",
  "sourceName": "contracts/LandNFT.sol",
  "abi": [
    {
      "inputs": [
        {
          "internalType": "address",
          "name": "marketplaceAddress",
          "type": "address"
        }
      ],
      "stateMutability": "nonpayable",
      "type": "constructor"
    },
    {
      "anonymous": false,
      "inputs": [
        {
          "indexed": true,
          "internalType": "address",
          "name": "owner",
          "type": "address"
        },
        {
          "indexed": true,
          "internalType": "address",
          "name": "approved",
          "type": "address"
        },
        {
          "indexed": true,
          "internalType": "uint256",
          "name": "tokenId",
          "type": "uint256"
        }
      ],
      "name": "Approval",
      "type": "event"
    },
    {
      "anonymous": false,
      "inputs": [
        {
          "indexed": true,
          "internalType": "address",
          "name": "owner",
          "type": "address"
        },
        {
          "indexed": true,
          "internalType": "address",
          "name": "operator",
          "type": "address"
        },
        {
          "indexed": false,
          "internalType": "bool",
          "name": "approved",
          "type": "bool"
        }
      ],
      "name": "ApprovalForAll",
      "type": "event"
    },
    {
      "anonymous": false,
      "inputs": [
        {
          "indexed": true,
          "internalType": "address",
          "name": "from",
          "type": "address"
        },
        {
          "indexed": true,
          "internalType": "address",
          "name": "to",
          "type": "address"
        },
        {
          "indexed": true,
          "internalType": "uint256",
          "name": "tokenId",
          "type": "uint256"
        }
      ],
      "name": "Transfer",
      "type": "event"
    },
    {
      "inputs": [
        {
          "internalType": "address",
          "name": "to",
          "type": "address"
        },
        {
          "internalType": "uint256",
          "name": "tokenId",
          "type": "uint256"
        }
      ],
      "name": "approve",
      "outputs": [],
      "stateMutability": "nonpayable",
      "type": "function"
    },
    {
      "inputs": [
        {
          "internalType": "address",
          "name": "owner",
          "type": "address"
        }
      ],
      "name": "balanceOf",
      "outputs": [
        {
          "internalType": "uint256",
          "name": "",
          "type": "uint256"
        }
      ],
      "stateMutability": "view",
      "type": "function"
    },
    {
      "inputs": [
        {
          "internalType": "uint256",
          "name": "tokenId",
          "type": "uint256"
        }
      ],
      "name": "getApproved",
      "outputs": [
        {
          "internalType": "address",
          "name": "",
          "type": "address"
        }
      ],
      "stateMutability": "view",
      "type": "function"
    },
    {
      "inputs": [
        {
          "internalType": "address",
          "name": "owner",
          "type": "address"
        },
        {
          "internalType": "address",
          "name": "operator",
          "type": "address"
        }
      ],
      "name": "isApprovedForAll",
      "outputs": [
        {
          "internalType": "bool",
          "name": "",
          "type": "bool"
        }
      ],
      "stateMutability": "view",
      "type": "function"
    },
    {
      "inputs": [
        {
          "internalType": "string",
          "name": "tokenURI",
          "type": "string"
        }
      ],
      "name": "mintToken",
      "outputs": [
        {
          "internalType": "uint256",
          "name": "",
          "type": "uint256"
        }
      ],
      "stateMutability": "nonpayable",
      "type": "function"
    },
    {
      "inputs": [],
      "name": "name",
      "outputs": [
        {
          "internalType": "string",
          "name": "",
          "type": "string"
        }
      ],
      "stateMutability": "view",
      "type": "function"
    },
    {
      "inputs": [
        {
          "internalType": "uint256",
          "name": "tokenId",
          "type": "uint256"
        }
      ],
      "name": "ownerOf",
      "outputs": [
        {
          "internalType": "address",
          "name": "",
          "type": "address"
        }
      ],
      "stateMutability": "view",
      "type": "function"
    },
    {
      "inputs": [
        {
          "internalType": "address",
          "name": "from",
          "type": "address"
        },
        {
          "internalType": "address",
          "name": "to",
          "type": "address"
        },
        {
          "internalType": "uint256",
          "name": "tokenId",
          "type": "uint256"
        }
      ],
      "name": "safeTransferFrom",
      "outputs": [],
      "stateMutability": "nonpayable",
      "type": "function"
    },
    {
      "inputs": [
        {
          "internalType": "address",
          "name": "from",
          "type": "address"
        },
        {
          "internalType": "address",
          "name": "to",
          "type": "address"
        },
        {
          "internalType": "uint256",
          "name": "tokenId",
          "type": "uint256"
        },
        {
          "internalType": "bytes",
          "name": "_data",
          "type": "bytes"
        }
      ],
      "name": "safeTransferFrom",
      "outputs": [],
      "stateMutability": "nonpayable",
      "type": "function"
    },
    {
      "inputs": [
        {
          "internalType": "address",
          "name": "operator",
          "type": "address"
        },
        {
          "internalType": "bool",
          "name": "approved",
          "type": "bool"
        }
      ],
      "name": "setApprovalForAll",
      "outputs": [],
      "stateMutability": "nonpayable",
      "type": "function"
    },
    {
      "inputs": [
        {
          "internalType": "bytes4",
          "name": "interfaceId",
          "type": "bytes4"
        }
      ],
      "name": "supportsInterface",
      "outputs": [
        {
          "internalType": "bool",
          "name": "",
          "type": "bool"
        }
      ],
      "stateMutability": "view",
      "type": "function"
    },
    {
      "inputs": [],
      "name": "symbol",
      "outputs": [
        {
          "internalType": "string",
          "name": "",
          "type": "string"
        }
      ],
      "stateMutability": "view",
      "type": "function"
    },
    {
      "inputs": [
        {
          "internalType": "uint256",
          "name": "tokenId",
          "type": "uint256"
        }
      ],
      "name": "tokenURI",
      "outputs": [
        {
          "internalType": "string",
          "name": "",
          "type": "string"
        }
      ],
      "stateMutability": "view",
      "type": "function"
    },
    {
      "inputs": [
        {
          "internalType": "address",
          "name": "from",
          "type": "address"
        },
        {
          "internalType": "address",
          "name": "to",
          "type": "address"
        },
        {
          "internalType": "uint256",
          "name": "tokenId",
          "type": "uint256"
        }
      ],
      "name": "transferFrom",
      "outputs": [],
      "stateMutability": "nonpayable",
      "type": "function"
    }
  ],
  "bytecode": "0x60806040523480156200001157600080fd5b506040516200190038038062001900833981016040819052620000349162000165565b604080518082018252600781526613185b9913919560ca1b6020808301918252835180850190945260048452631310539160e21b9084015281519192916200007f91600091620000bf565b50805162000095906001906020840190620000bf565b5050600880546001600160a01b0319166001600160a01b03939093169290921790915550620001d2565b828054620000cd9062000195565b90600052602060002090601f016020900481019282620000f157600085556200013c565b82601f106200010c57805160ff19168380011785556200013c565b828001600101855582156200013c579182015b828111156200013c5782518255916020019190600101906200011f565b506200014a9291506200014e565b5090565b5b808211156200014a57600081556001016200014f565b60006020828403121562000177578081fd5b81516001600160a01b03811681146200018e578182fd5b9392505050565b600181811c90821680620001aa57607f821691505b60208210811415620001cc57634e487b7160e01b600052602260045260246000fd5b50919050565b61171e80620001e26000396000f3fe608060405234801561001057600080fd5b50600436106100ea5760003560e01c80636352211e1161008c578063a22cb46511610066578063a22cb465146101e1578063b88d4fde146101f4578063c87b56dd14610207578063e985e9c51461021a57600080fd5b80636352211e146101b357806370a08231146101c657806395d89b41146101d957600080fd5b8063095ea7b3116100c8578063095ea7b31461015757806323b872dd1461016c57806333eba49a1461017f57806342842e0e146101a057600080fd5b806301ffc9a7146100ef57806306fdde0314610117578063081812fc1461012c575b600080fd5b6101026100fd3660046113d1565b610256565b60405190151581526020015b60405180910390f35b61011f6102a8565b60405161010e91906114fe565b61013f61013a36600461144f565b61033a565b6040516001600160a01b03909116815260200161010e565b61016a6101653660046113a8565b6103d4565b005b61016a61017a3660046112ba565b6104ea565b61019261018d366004611409565b61051b565b60405190815260200161010e565b61016a6101ae3660046112ba565b610563565b61013f6101c136600461144f565b61057e565b6101926101d436600461126e565b6105f5565b61011f61067c565b61016a6101ef36600461136e565b61068b565b61016a6102023660046112f5565b61069a565b61011f61021536600461144f565b6106d2565b610102610228366004611288565b6001600160a01b03918216600090815260056020908152604080832093909416825291909152205460ff1690565b60006001600160e01b031982166380ac58cd60e01b148061028757506001600160e01b03198216635b5e139f60e01b145b806102a257506301ffc9a760e01b6001600160e01b03198316145b92915050565b6060600080546102b790611623565b80601f01602080910402602001604051908101604052809291908181526020018280546102e390611623565b80156103305780601f1061030557610100808354040283529160200191610330565b820191906000526020600020905b81548152906001019060200180831161031357829003601f168201915b5050505050905090565b6000818152600260205260408120546001600160a01b03166103b85760405162461bcd60e51b815260206004820152602c60248201527f4552433732313a20617070726f76656420717565727920666f72206e6f6e657860448201526b34b9ba32b73a103a37b5b2b760a11b60648201526084015b60405180910390fd5b506000908152600460205260409020546001600160a01b031690565b60006103df8261057e565b9050806001600160a01b0316836001600160a01b0316141561044d5760405162461bcd60e51b815260206004820152602160248201527f4552433732313a20617070726f76616c20746f2063757272656e74206f776e656044820152603960f91b60648201526084016103af565b336001600160a01b038216148061046957506104698133610228565b6104db5760405162461bcd60e51b815260206004820152603860248201527f4552433732313a20617070726f76652063616c6c6572206973206e6f74206f7760448201527f6e6572206e6f7220617070726f76656420666f7220616c6c000000000000000060648201526084016103af565b6104e58383610859565b505050565b6104f433826108c7565b6105105760405162461bcd60e51b81526004016103af90611563565b6104e58383836109ba565b600061052b600780546001019055565b600061053660075490565b90506105423382610b56565b61054c8184610c98565b6008546102a2906001600160a01b0316600161068b565b6104e58383836040518060200160405280600081525061069a565b6000818152600260205260408120546001600160a01b0316806102a25760405162461bcd60e51b815260206004820152602960248201527f4552433732313a206f776e657220717565727920666f72206e6f6e657869737460448201526832b73a103a37b5b2b760b91b60648201526084016103af565b60006001600160a01b0382166106605760405162461bcd60e51b815260206004820152602a60248201527f4552433732313a2062616c616e636520717565727920666f7220746865207a65604482015269726f206164647265737360b01b60648201526084016103af565b506001600160a01b031660009081526003602052604090205490565b6060600180546102b790611623565b610696338383610d32565b5050565b6106a433836108c7565b6106c05760405162461bcd60e51b81526004016103af90611563565b6106cc84848484610e01565b50505050565b6000818152600260205260409020546060906001600160a01b03166107535760405162461bcd60e51b815260206004820152603160248201527f45524337323155524953746f726167653a2055524920717565727920666f72206044820152703737b732bc34b9ba32b73a103a37b5b2b760791b60648201526084016103af565b6000828152600660205260408120805461076c90611623565b80601f016020809104026020016040519081016040528092919081815260200182805461079890611623565b80156107e55780601f106107ba576101008083540402835291602001916107e5565b820191906000526020600020905b8154815290600101906020018083116107c857829003601f168201915b50505050509050600061080360408051602081019091526000815290565b9050805160001415610816575092915050565b815115610848578082604051602001610830929190611493565b60405160208183030381529060405292505050919050565b61085184610e34565b949350505050565b600081815260046020526040902080546001600160a01b0319166001600160a01b038416908117909155819061088e8261057e565b6001600160a01b03167f8c5be1e5ebec7d5bd14f71427d1e84f3dd0314c0f7b2291e5b200ac8c7c3b92560405160405180910390a45050565b6000818152600260205260408120546001600160a01b03166109405760405162461bcd60e51b815260206004820152602c60248201527f4552433732313a206f70657261746f7220717565727920666f72206e6f6e657860448201526b34b9ba32b73a103a37b5b2b760a11b60648201526084016103af565b600061094b8361057e565b9050806001600160a01b0316846001600160a01b031614806109865750836001600160a01b031661097b8461033a565b6001600160a01b0316145b8061085157506001600160a01b0380821660009081526005602090815260408083209388168352929052205460ff16610851565b826001600160a01b03166109cd8261057e565b6001600160a01b031614610a315760405162461bcd60e51b815260206004820152602560248201527f4552433732313a207472616e736665722066726f6d20696e636f72726563742060448201526437bbb732b960d91b60648201526084016103af565b6001600160a01b038216610a935760405162461bcd60e51b8152602060048201526024808201527f4552433732313a207472616e7366657220746f20746865207a65726f206164646044820152637265737360e01b60648201526084016103af565b610a9e600082610859565b6001600160a01b0383166000908152600360205260408120805460019290610ac79084906115e0565b90915550506001600160a01b0382166000908152600360205260408120805460019290610af59084906115b4565b909155505060008181526002602052604080822080546001600160a01b0319166001600160a01b0386811691821790925591518493918716917fddf252ad1be2c89b69c2b068fc378daa952ba7f163c4a11628f55a4df523b3ef91a4505050565b6001600160a01b038216610bac5760405162461bcd60e51b815260206004820181905260248201527f4552433732313a206d696e7420746f20746865207a65726f206164647265737360448201526064016103af565b6000818152600260205260409020546001600160a01b031615610c115760405162461bcd60e51b815260206004820152601c60248201527f4552433732313a20746f6b656e20616c7265616479206d696e7465640000000060448201526064016103af565b6001600160a01b0382166000908152600360205260408120805460019290610c3a9084906115b4565b909155505060008181526002602052604080822080546001600160a01b0319166001600160a01b03861690811790915590518392907fddf252ad1be2c89b69c2b068fc378daa952ba7f163c4a11628f55a4df523b3ef908290a45050565b6000828152600260205260409020546001600160a01b0316610d135760405162461bcd60e51b815260206004820152602e60248201527f45524337323155524953746f726167653a2055524920736574206f66206e6f6e60448201526d32bc34b9ba32b73a103a37b5b2b760911b60648201526084016103af565b600082815260066020908152604090912082516104e592840190611143565b816001600160a01b0316836001600160a01b03161415610d945760405162461bcd60e51b815260206004820152601960248201527f4552433732313a20617070726f766520746f2063616c6c65720000000000000060448201526064016103af565b6001600160a01b03838116600081815260056020908152604080832094871680845294825291829020805460ff191686151590811790915591519182527f17307eab39ab6107e8899845ad3d59bd9653f200f220920489ca2b5937696c31910160405180910390a3505050565b610e0c8484846109ba565b610e1884848484610f1c565b6106cc5760405162461bcd60e51b81526004016103af90611511565b6000818152600260205260409020546060906001600160a01b0316610eb35760405162461bcd60e51b815260206004820152602f60248201527f4552433732314d657461646174613a2055524920717565727920666f72206e6f60448201526e3732bc34b9ba32b73a103a37b5b2b760891b60648201526084016103af565b6000610eca60408051602081019091526000815290565b90506000815111610eea5760405180602001604052806000815250610f15565b80610ef484611029565b604051602001610f05929190611493565b6040516020818303038152906040525b9392505050565b60006001600160a01b0384163b1561101e57604051630a85bd0160e11b81526001600160a01b0385169063150b7a0290610f609033908990889088906004016114c2565b602060405180830381600087803b158015610f7a57600080fd5b505af1925050508015610faa575060408051601f3d908101601f19168201909252610fa7918101906113ed565b60015b611004573d808015610fd8576040519150601f19603f3d011682016040523d82523d6000602084013e610fdd565b606091505b508051610ffc5760405162461bcd60e51b81526004016103af90611511565b805181602001fd5b6001600160e01b031916630a85bd0160e11b149050610851565b506001949350505050565b60608161104d5750506040805180820190915260018152600360fc1b602082015290565b8160005b811561107757806110618161165e565b91506110709050600a836115cc565b9150611051565b60008167ffffffffffffffff8111156110a057634e487b7160e01b600052604160045260246000fd5b6040519080825280601f01601f1916602001820160405280156110ca576020820181803683370190505b5090505b8415610851576110df6001836115e0565b91506110ec600a86611679565b6110f79060306115b4565b60f81b81838151811061111a57634e487b7160e01b600052603260045260246000fd5b60200101906001600160f81b031916908160001a90535061113c600a866115cc565b94506110ce565b82805461114f90611623565b90600052602060002090601f01602090048101928261117157600085556111b7565b82601f1061118a57805160ff19168380011785556111b7565b828001600101855582156111b7579182015b828111156111b757825182559160200191906001019061119c565b506111c39291506111c7565b5090565b5b808211156111c357600081556001016111c8565b600067ffffffffffffffff808411156111f7576111f76116b9565b604051601f8501601f19908116603f0116810190828211818310171561121f5761121f6116b9565b8160405280935085815286868601111561123857600080fd5b858560208301376000602087830101525050509392505050565b80356001600160a01b038116811461126957600080fd5b919050565b60006020828403121561127f578081fd5b610f1582611252565b6000806040838503121561129a578081fd5b6112a383611252565b91506112b160208401611252565b90509250929050565b6000806000606084860312156112ce578081fd5b6112d784611252565b92506112e560208501611252565b9150604084013590509250925092565b6000806000806080858703121561130a578081fd5b61131385611252565b935061132160208601611252565b925060408501359150606085013567ffffffffffffffff811115611343578182fd5b8501601f81018713611353578182fd5b611362878235602084016111dc565b91505092959194509250565b60008060408385031215611380578182fd5b61138983611252565b91506020830135801515811461139d578182fd5b809150509250929050565b600080604083850312156113ba578182fd5b6113c383611252565b946020939093013593505050565b6000602082840312156113e2578081fd5b8135610f15816116cf565b6000602082840312156113fe578081fd5b8151610f15816116cf565b60006020828403121561141a578081fd5b813567ffffffffffffffff811115611430578182fd5b8201601f81018413611440578182fd5b610851848235602084016111dc565b600060208284031215611460578081fd5b5035919050565b6000815180845261147f8160208601602086016115f7565b601f01601f19169290920160200192915050565b600083516114a58184602088016115f7565b8351908301906114b98183602088016115f7565b01949350505050565b60006001600160a01b038087168352808616602084015250836040830152608060608301526114f46080830184611467565b9695505050505050565b602081526000610f156020830184611467565b60208082526032908201527f4552433732313a207472616e7366657220746f206e6f6e20455243373231526560408201527131b2b4bb32b91034b6b83632b6b2b73a32b960711b606082015260800190565b60208082526031908201527f4552433732313a207472616e736665722063616c6c6572206973206e6f74206f6040820152701ddb995c881b9bdc88185c1c1c9bdd9959607a1b606082015260800190565b600082198211156115c7576115c761168d565b500190565b6000826115db576115db6116a3565b500490565b6000828210156115f2576115f261168d565b500390565b60005b838110156116125781810151838201526020016115fa565b838111156106cc5750506000910152565b600181811c9082168061163757607f821691505b6020821081141561165857634e487b7160e01b600052602260045260246000fd5b50919050565b60006000198214156116725761167261168d565b5060010190565b600082611688576116886116a3565b500690565b634e487b7160e01b600052601160045260246000fd5b634e487b7160e01b600052601260045260246000fd5b634e487b7160e01b600052604160045260246000fd5b6001600160e01b0319811681146116e557600080fd5b5056fea26469706673582212208ee826eab3bdbf7a6d7067e41d3c0bb6bf4aa7b8096f93d05e1d6684001a803464736f6c63430008040033",
  "linkReferences": {},
  "deployedLinkReferences": {}
}