{
  "_format": "hh-sol-artifact-1",
  "contractName": "LandMarket",
  "sourceName": "contracts/LandMarket.sol",
  "abi": [
    {
      "inputs": [],
      "stateMutability": "nonpayable",
      "type": "constructor"
    },
    {
      "anonymous": false,
      "inputs": [
        {
          "indexed": true,
          "internalType": "uint256",
          "name": "tokenId",
          "type": "uint256"
        },
        {
          "indexed": true,
          "internalType": "address",
          "name": "nftContract",
          "type": "address"
        },
        {
          "indexed": true,
          "internalType": "address",
          "name": "landSeller",
          "type": "address"
        },
        {
          "indexed": false,
          "internalType": "address",
          "name": "landOwner",
          "type": "address"
        },
        {
          "indexed": false,
          "internalType": "uint256",
          "name": "landPrice",
          "type": "uint256"
        },
        {
          "indexed": false,
          "internalType": "bool",
          "name": "sold",
          "type": "bool"
        }
      ],
      "name": "LandTokenMinted",
      "type": "event"
    },
    {
      "inputs": [
        {
          "internalType": "address",
          "name": "nftContract",
          "type": "address"
        },
        {
          "internalType": "uint256",
          "name": "itemId",
          "type": "uint256"
        }
      ],
      "name": "createMarketSale",
      "outputs": [],
      "stateMutability": "payable",
      "type": "function"
    },
    {
      "inputs": [],
      "name": "fetchItemsCreated",
      "outputs": [
        {
          "components": [
            {
              "internalType": "uint256",
              "name": "tokenId",
              "type": "uint256"
            },
            {
              "internalType": "address",
              "name": "nftContract",
              "type": "address"
            },
            {
              "internalType": "string",
              "name": "landAddress",
              "type": "string"
            },
            {
              "internalType": "string",
              "name": "coordinates",
              "type": "string"
            },
            {
              "internalType": "string",
              "name": "size",
              "type": "string"
            },
            {
              "internalType": "address payable",
              "name": "landSeller",
              "type": "address"
            },
            {
              "internalType": "address payable",
              "name": "landOwner",
              "type": "address"
            },
            {
              "internalType": "uint256",
              "name": "landPrice",
              "type": "uint256"
            },
            {
              "internalType": "bool",
              "name": "sold",
              "type": "bool"
            }
          ],
          "internalType": "struct LandMarket.LandToken[]",
          "name": "",
          "type": "tuple[]"
        }
      ],
      "stateMutability": "view",
      "type": "function"
    },
    {
      "inputs": [],
      "name": "fetchMarketTokens",
      "outputs": [
        {
          "components": [
            {
              "internalType": "uint256",
              "name": "tokenId",
              "type": "uint256"
            },
            {
              "internalType": "address",
              "name": "nftContract",
              "type": "address"
            },
            {
              "internalType": "string",
              "name": "landAddress",
              "type": "string"
            },
            {
              "internalType": "string",
              "name": "coordinates",
              "type": "string"
            },
            {
              "internalType": "string",
              "name": "size",
              "type": "string"
            },
            {
              "internalType": "address payable",
              "name": "landSeller",
              "type": "address"
            },
            {
              "internalType": "address payable",
              "name": "landOwner",
              "type": "address"
            },
            {
              "internalType": "uint256",
              "name": "landPrice",
              "type": "uint256"
            },
            {
              "internalType": "bool",
              "name": "sold",
              "type": "bool"
            }
          ],
          "internalType": "struct LandMarket.LandToken[]",
          "name": "",
          "type": "tuple[]"
        }
      ],
      "stateMutability": "view",
      "type": "function"
    },
    {
      "inputs": [],
      "name": "fetchMyNFTs",
      "outputs": [
        {
          "components": [
            {
              "internalType": "uint256",
              "name": "tokenId",
              "type": "uint256"
            },
            {
              "internalType": "address",
              "name": "nftContract",
              "type": "address"
            },
            {
              "internalType": "string",
              "name": "landAddress",
              "type": "string"
            },
            {
              "internalType": "string",
              "name": "coordinates",
              "type": "string"
            },
            {
              "internalType": "string",
              "name": "size",
              "type": "string"
            },
            {
              "internalType": "address payable",
              "name": "landSeller",
              "type": "address"
            },
            {
              "internalType": "address payable",
              "name": "landOwner",
              "type": "address"
            },
            {
              "internalType": "uint256",
              "name": "landPrice",
              "type": "uint256"
            },
            {
              "internalType": "bool",
              "name": "sold",
              "type": "bool"
            }
          ],
          "internalType": "struct LandMarket.LandToken[]",
          "name": "",
          "type": "tuple[]"
        }
      ],
      "stateMutability": "view",
      "type": "function"
    },
    {
      "inputs": [],
      "name": "getListingPrice",
      "outputs": [
        {
          "internalType": "uint256",
          "name": "",
          "type": "uint256"
        }
      ],
      "stateMutability": "view",
      "type": "function"
    },
    {
      "inputs": [
        {
          "internalType": "address",
          "name": "nftContract",
          "type": "address"
        },
        {
          "internalType": "uint256",
          "name": "tokenId",
          "type": "uint256"
        },
        {
          "internalType": "uint256",
          "name": "price",
          "type": "uint256"
        },
        {
          "internalType": "string",
          "name": "landAddress",
          "type": "string"
        },
        {
          "internalType": "string",
          "name": "coordinates",
          "type": "string"
        },
        {
          "internalType": "string",
          "name": "size",
          "type": "string"
        }
      ],
      "name": "makeMarketItem",
      "outputs": [],
      "stateMutability": "payable",
      "type": "function"
    }
  ],
  "bytecode": "0x6080604052669fdf42f6e4800060045534801561001b57600080fd5b506001600055600380546001600160a01b0319163317905561158e806100426000396000f3fe6080604052600436106100655760003560e01c8063c69bdf7511610043578063c69bdf75146100c4578063e8caff96146100d9578063f064c32e146100ec57600080fd5b806312e855851461006a578063202e37401461008d578063c23b139e146100af575b600080fd5b34801561007657600080fd5b506004546040519081526020015b60405180910390f35b34801561009957600080fd5b506100a2610101565b60405161008491906113a1565b6100c26100bd366004611286565b6104bc565b005b3480156100d057600080fd5b506100a26106d0565b6100c26100e73660046112af565b610a2a565b3480156100f857600080fd5b506100a2610d2f565b6060600061010e60015490565b905060008060005b8381101561017157336005600061012e8460016114a7565b81526020810191909152604001600020600601546001600160a01b0316141561015f5761015c6001846114a7565b92505b8061016981611511565b915050610116565b5060008267ffffffffffffffff81111561019b57634e487b7160e01b600052604160045260246000fd5b6040519080825280602002602001820160405280156101d457816020015b6101c16110e1565b8152602001906001900390816101b95790505b50905060005b848110156104b35733600560006101f28460016114a7565b81526020810191909152604001600020600601546001600160a01b031614156104a15760006005816102258460016114a7565b8152602080820192909252604090810160009081205480825260058452908290208251610120810184528154815260018201546001600160a01b03169481019490945260028101805492955090939284929084019190610284906114d6565b80601f01602080910402602001604051908101604052809291908181526020018280546102b0906114d6565b80156102fd5780601f106102d2576101008083540402835291602001916102fd565b820191906000526020600020905b8154815290600101906020018083116102e057829003601f168201915b50505050508152602001600382018054610316906114d6565b80601f0160208091040260200160405190810160405280929190818152602001828054610342906114d6565b801561038f5780601f106103645761010080835404028352916020019161038f565b820191906000526020600020905b81548152906001019060200180831161037257829003601f168201915b505050505081526020016004820180546103a8906114d6565b80601f01602080910402602001604051908101604052809291908181526020018280546103d4906114d6565b80156104215780601f106103f657610100808354040283529160200191610421565b820191906000526020600020905b81548152906001019060200180831161040457829003601f168201915b505050918352505060058201546001600160a01b03908116602083015260068301541660408201526007820154606082015260089091015460ff161515608090910152845185908790811061048657634e487b7160e01b600052603260045260246000fd5b602090810291909101015261049c6001866114a7565b945050505b806104ab81611511565b9150506101da565b50949350505050565b600260005414156105145760405162461bcd60e51b815260206004820152601f60248201527f5265656e7472616e637947756172643a207265656e7472616e742063616c6c0060448201526064015b60405180910390fd5b60026000908155818152600560205260409020600781015490543482146105995760405162461bcd60e51b815260206004820152603360248201527f506c65617365207375626d6974207468652061736b696e6720707269636520696044820152726e206f7264657220746f20636f6e74696e756560681b606482015260840161050b565b60008381526005602081905260408083209091015490516001600160a01b03909116913480156108fc02929091818181858888f193505050501580156105e3573d6000803e3d6000fd5b506040516323b872dd60e01b8152306004820152336024820152604481018290526001600160a01b038516906323b872dd90606401600060405180830381600087803b15801561063257600080fd5b505af1158015610646573d6000803e3d6000fd5b50505060008481526005602052604090206006810180546001600160a01b03191633179055600801805460ff1916600117905550610688600280546001019055565b6003546004546040516001600160a01b039092169181156108fc0291906000818181858888f193505050501580156106c4573d6000803e3d6000fd5b50506001600055505050565b606060006106dd60015490565b905060006106ea60025490565b6001546106f791906114bf565b90506000808267ffffffffffffffff81111561072357634e487b7160e01b600052604160045260246000fd5b60405190808252806020026020018201604052801561075c57816020015b6107496110e1565b8152602001906001900390816107415790505b50905060005b848110156104b357600060058161077a8460016114a7565b81526020810191909152604001600020600601546001600160a01b03161415610a185760006107aa8260016114a7565b6000818152600560209081526040918290208251610120810184528154815260018201546001600160a01b03169281019290925260028101805494955090939192849290840191906107fb906114d6565b80601f0160208091040260200160405190810160405280929190818152602001828054610827906114d6565b80156108745780601f1061084957610100808354040283529160200191610874565b820191906000526020600020905b81548152906001019060200180831161085757829003601f168201915b5050505050815260200160038201805461088d906114d6565b80601f01602080910402602001604051908101604052809291908181526020018280546108b9906114d6565b80156109065780601f106108db57610100808354040283529160200191610906565b820191906000526020600020905b8154815290600101906020018083116108e957829003601f168201915b5050505050815260200160048201805461091f906114d6565b80601f016020809104026020016040519081016040528092919081815260200182805461094b906114d6565b80156109985780601f1061096d57610100808354040283529160200191610998565b820191906000526020600020905b81548152906001019060200180831161097b57829003601f168201915b505050918352505060058201546001600160a01b03908116602083015260068301541660408201526007820154606082015260089091015460ff16151560809091015284518590879081106109fd57634e487b7160e01b600052603260045260246000fd5b6020908102919091010152610a136001866114a7565b945050505b80610a2281611511565b915050610762565b60026000541415610a7d5760405162461bcd60e51b815260206004820152601f60248201527f5265656e7472616e637947756172643a207265656e7472616e742063616c6c00604482015260640161050b565b600260005583610acf5760405162461bcd60e51b815260206004820152601e60248201527f5072696365206d757374206265206174206c65617374206f6e65207765690000604482015260640161050b565b6004543414610b2c5760405162461bcd60e51b8152602060048201526024808201527f5072696365206d75737420626520657175616c20746f206c697374696e6720706044820152637269636560e01b606482015260840161050b565b610b3a600180546001019055565b6000610b4560015490565b60408051610120810182528881526001600160a01b038a811660208084019182528385018a8152606085018a9052608085018990523360a0860152600060c0860181905260e086018d9052610100860181905287815260058352959095208451815591516001830180546001600160a01b0319169190941617909255925180519495509193610bda926002850192019061114a565b5060608201518051610bf691600384019160209091019061114a565b5060808201518051610c1291600484019160209091019061114a565b5060a08201516005820180546001600160a01b03199081166001600160a01b039384161790915560c084015160068401805490921690831617905560e08301516007830155610100909201516008909101805460ff19169115159190911790556040516323b872dd60e01b815233600482015230602482015260448101889052908816906323b872dd90606401600060405180830381600087803b158015610cb957600080fd5b505af1158015610ccd573d6000803e3d6000fd5b5050604080516000808252602082018a90528183015290513393506001600160a01b038b16925089917f090ce7da1df696ccc7b99e2a583e476998c936b991c2b2e0f7463515573fb98c919081900360600190a4505060016000555050505050565b60606000610d3c60015490565b905060008060005b83811015610d9f573360056000610d5c8460016114a7565b81526020810191909152604001600020600501546001600160a01b03161415610d8d57610d8a6001846114a7565b92505b80610d9781611511565b915050610d44565b5060008267ffffffffffffffff811115610dc957634e487b7160e01b600052604160045260246000fd5b604051908082528060200260200182016040528015610e0257816020015b610def6110e1565b815260200190600190039081610de75790505b50905060005b848110156104b3573360056000610e208460016114a7565b81526020810191909152604001600020600501546001600160a01b031614156110cf576000600581610e538460016114a7565b8152602080820192909252604090810160009081205480825260058452908290208251610120810184528154815260018201546001600160a01b03169481019490945260028101805492955090939284929084019190610eb2906114d6565b80601f0160208091040260200160405190810160405280929190818152602001828054610ede906114d6565b8015610f2b5780601f10610f0057610100808354040283529160200191610f2b565b820191906000526020600020905b815481529060010190602001808311610f0e57829003601f168201915b50505050508152602001600382018054610f44906114d6565b80601f0160208091040260200160405190810160405280929190818152602001828054610f70906114d6565b8015610fbd5780601f10610f9257610100808354040283529160200191610fbd565b820191906000526020600020905b815481529060010190602001808311610fa057829003601f168201915b50505050508152602001600482018054610fd6906114d6565b80601f0160208091040260200160405190810160405280929190818152602001828054611002906114d6565b801561104f5780601f106110245761010080835404028352916020019161104f565b820191906000526020600020905b81548152906001019060200180831161103257829003601f168201915b505050918352505060058201546001600160a01b03908116602083015260068301541660408201526007820154606082015260089091015460ff16151560809091015284518590879081106110b457634e487b7160e01b600052603260045260246000fd5b60209081029190910101526110ca6001866114a7565b945050505b806110d981611511565b915050610e08565b6040518061012001604052806000815260200160006001600160a01b0316815260200160608152602001606081526020016060815260200160006001600160a01b0316815260200160006001600160a01b03168152602001600081526020016000151581525090565b828054611156906114d6565b90600052602060002090601f01602090048101928261117857600085556111be565b82601f1061119157805160ff19168380011785556111be565b828001600101855582156111be579182015b828111156111be5782518255916020019190600101906111a3565b506111ca9291506111ce565b5090565b5b808211156111ca57600081556001016111cf565b80356001600160a01b03811681146111fa57600080fd5b919050565b600082601f83011261120f578081fd5b813567ffffffffffffffff8082111561122a5761122a611542565b604051601f8301601f19908116603f0116810190828211818310171561125257611252611542565b8160405283815286602085880101111561126a578485fd5b8360208701602083013792830160200193909352509392505050565b60008060408385031215611298578182fd5b6112a1836111e3565b946020939093013593505050565b60008060008060008060c087890312156112c7578182fd5b6112d0876111e3565b95506020870135945060408701359350606087013567ffffffffffffffff808211156112fa578384fd5b6113068a838b016111ff565b9450608089013591508082111561131b578384fd5b6113278a838b016111ff565b935060a089013591508082111561133c578283fd5b5061134989828a016111ff565b9150509295509295509295565b60008151808452815b8181101561137b5760208185018101518683018201520161135f565b8181111561138c5782602083870101525b50601f01601f19169290920160200192915050565b60006020808301818452808551808352604092508286019150828160051b870101848801865b8381101561149957603f19898403018552815180518452878101516001600160a01b031688850152868101516101208886018190529061140982870182611356565b915050606080830151868303828801526114238382611356565b925050506080808301518683038288015261143e8382611356565b9250505060a08083015161145c828801826001600160a01b03169052565b505060c0828101516001600160a01b03169086015260e08083015190860152610100918201511515919094015293860193908601906001016113c7565b509098975050505050505050565b600082198211156114ba576114ba61152c565b500190565b6000828210156114d1576114d161152c565b500390565b600181811c908216806114ea57607f821691505b6020821081141561150b57634e487b7160e01b600052602260045260246000fd5b50919050565b60006000198214156115255761152561152c565b5060010190565b634e487b7160e01b600052601160045260246000fd5b634e487b7160e01b600052604160045260246000fdfea26469706673582212200931b8f4caa3c84fc239d24e4b6e119d736eb0cac1f6b7fc170128219dd5d6bb64736f6c63430008040033",
  "linkReferences": {},
  "deployedLinkReferences": {}
}